:020000040002F8
:10300000205B00204D33020055330200573302008D
:10301000593302005B3302005D3302000000000000
:103020000000000000000000000000005F3302000C
:1030300061330200000000006333020065330200C8
:10304000D936020067330200B93A02006733020042
:103050006733020067330200013502006733020064
:1030600067330200673302006733020067330200F0
:1030700067330200673302006733020067330200E0
:103080006733020031370200673302006733020002
:10309000B537020067330200B93702006733020018
:1030A00067330200673302006733020067330200B0
:1030B00067330200673302000000000000000000D8
:1030C0006733020067330200673302006733020090
:1030D000673302006733020067330200000000001C
:1030E00000000000000000000000000000000000E0
:1030F00000000000000000000000000000000000D0
:1031000000000000000000000000000000000000BF
:1031100000000000000000000000000000000000AF
:10312000000000000000000000000000000000009F
:10313000000000000000000000000000000000008F
:10314000000000000000000000000000000000007F
:10315000000000000000000000000000000000006F
:10316000000000000000000000000000000000005F
:10317000000000000000000000000000000000004F
:10318000000000000000000000000000000000003F
:10319000000000000000000000000000000000002F
:1031A000000000000000000000000000000000001F
:1031B000000000000000000000000000000000000F
:1031C00000000000000000000000000000000000FF
:1031D00000000000000000000000000000000000EF
:1031E00000000000000000000000000000000000DF
:1031F00000000000000000000000000000000000CF
:10320000DFF80CD000F03EF9004800473D5A0200BC
:10321000205B002030B4044654E8000F0D4644E81B
:103220000053002BF8D1156030BC704730B4044611
:1032300054E8000F40EA010544E80053002BF7D1A1
:10324000156030BC704730B4044654E8000F00EA03
:10325000010544E80053002BF7D1156030BC7047DE
:1032600030B4044654E8000F80EA010544E80053F6
:10327000002BF7D1156030BC704730B4044654E8D9
:10328000000F00EB010544E80053002BF7D1156057
:1032900030BC704730B4044654E8000FA0EB010581
:1032A00044E80053002BF7D1156030BC7047000094
:1032B00030B4044654E8000F0D4644E80053002B98
:1032C000F8D1156030BC704730B4044654E8000FA4
:1032D00040EA010544E80053002BF7D1156030BCEB
:1032E000704730B4044654E8000F00EA010544E892
:1032F0000053002BF7D1156030BC704730B4044642
:1033000054E8000F80EA010544E80053002BF7D190
:10331000156030BC704730B4044654E8000F00EB31
:10332000010544E80053002BF7D1156030BC70470D
:1033300030B4044654E8000FA0EB010544E8005304
:10334000002BF7D1156030BC70470000064880475D
:1033500006480047FEE7FEE7FEE7FEE7FEE7FEE77A
:10336000FEE7FEE7FEE7FEE7BD370200013202009E
:103370002DE9F05F0546002092469B4688460646AA
:10338000814640241BE0284641464746224600F03D
:1033900068F853465A46C01A914110D31146184650
:1033A000224600F04FF82D1A67EB01084F462246DF
:1033B0000120002100F046F817EB00094E41201EC5
:1033C000A4F10104DFDC484631462A464346BDE805
:1033D000F09F0000004870474C8A020040EA010359
:1033E0009B0703D009E008C9121F08C0042AFAD2BB
:1033F00003E011F8013B00F8013B521EF9D270477F
:10340000D2B201E000F8012B491EFBD27047002226
:10341000F6E710B513460A4604461946FFF7F0FFD3
:10342000204610BD421C10F8011B0029FBD1801A58
:103430007047034611F8012B00F8012B002AF9D13F
:1034400018467047202A04DB203A00FA02F10020D7
:1034500070479140C2F1200320FA03F319439040D2
:103460007047202A04DB203A21FA02F0002170473D
:1034700021FA02F3D040C2F12002914008431946DC
:1034800070470000064C074D06E0E06840F001037D
:1034900094E8070098471034AC42F6D3FFF7B4FE27
:1034A0001C9102003C91020070B58C1810F8015B71
:1034B00015F0070301D110F8013B2A1106D110F8CD
:1034C000012B03E010F8016B01F8016B5B1EF9D1D1
:1034D0002B0705D40023521E0DD401F8013BFAE757
:1034E00010F8013BCB1A921C03E013F8015B01F8C2
:1034F000015B521EF9D5A142D8D3002070BD000057
:103500002DE9F04700268CB0DFF86091B0464FF40B
:103510008075012437460696284603F051FB38B1E2
:10352000D9F80403204203D0284603F03FFB26438A
:103530002D1D64007F1CADB2082FEDD34FF4BE7477
:10354000204603F03DFB48B1204603F02FFB46F038
:10355000004606AA0121002003F014FB444D16F09A
:10356000FF0F15D00127002437420DD009EB84014D
:10357000D1F81005D1F81015C0F3042055F8242017
:10358000C1F3014102B190477F00641C082CEBD3CA
:10359000002E67DA4FF0FF30CDE908800026344670
:1035A000281910F8507F90F9000027F0C008401C3F
:1035B00044D009A9404602F072FC58B34FEA97196B
:1035C000404601F09DFE55F820701FB1B9F1030F80
:1035D00003D00FE0B9F1030F30D108A84FEAD802A9
:1035E00008F00703815C4FF0010C0CFA03FC41EA80
:1035F0000C0181544FF0A04101EB8800D0F8000786
:1036000006A9C0F3014A404602F049FC18B1BAF1DC
:10361000020F03D012E0BAF1030F0FD1B9F1030F7B
:1036200008D1BAF1020F1BD00221404603F08EFAF6
:10363000761CF6B217B149464046B847641C042CC4
:10364000AED3002E0ED06A460121002003F09AFA74
:1036500006990098884205D00690089809909DE741
:103660000321E2E70CB0BDE8F087000000600040F5
:103670003031002000F01F020121914040098000FC
:1036800000F1E020C0F88012704700F01F02012115
:1036900091404009800000F1E020C0F8001170471F
:1036A00000F01F02012191404009800000F1E0205C
:1036B000C0F8001270474907090E002806DA00F02A
:1036C0000F0000F1E02080F8141D704700F1E020A9
:1036D00080F80014704700002DE9F0414FF4807726
:1036E000384602F0A5FC0124104EA50748B1384623
:1036F00002F0A5FC0120C5F808037470002001F059
:1037000007FE4FF48277384602F092FC00280BD077
:10371000384602F094FC0220C5F80803B470BDE8F6
:10372000F041012001F0F4BDBDE8F0811C31002022
:1037300007480021C0F84011C0F84411C0F84811F2
:10374000C0F84C11C0F80011C0F8041104F094BC8A
:103750000010014000F0BEB970B50E46144900EBF0
:10376000400001EBC0051446E86A183520B1012875
:103770000FD0022805D113E0284600F0DFF9A0425F
:1037800001D2002411E022463146284600F00EFA0C
:103790000BE0284600F0D2F9A042F4D20446F2E74A
:1037A0003146284600F0D5F90446204670BD000099
:1037B0009838002004F0AEBB03F0E2BEF0B5AE488E
:1037C0000023021D01780125101D4FF080540629A9
:1037D0000BD11678360708D10678C6F30316032EE8
:1037E00006D0042E04D0052E02D0062907D00EE004
:1037F000B4F82463A14FC6F304263E6002E01678B5
:10380000360704D10678C6F30316032E02D0062924
:1038100004D00FE09B4F9A4E7E670EE01678360775
:1038200008D10678C6F30316032E06D0042E04D062
:10383000052E02D0062907D00EE0D4F84462924F3C
:10384000C6F342363E6002E01678360704D10678A9
:10385000C6F30316032E02D0062906D011E08B4EC4
:10386000376827F0807737600EE01678360708D182
:103870000678C6F30316032E06D0042E04D0052EB8
:1038800002D006290AD011E04FF08046C6F80C316C
:10389000C6F810317C4E361F336002E016783607CA
:1038A00004D10678C6F30316032E02D0062905D0EC
:1038B0000CE0754F032664373E600AE01678360741
:1038C00004D10678C6F30316032E02D006290DD0C4
:1038D00014E06F4F05263E606D4E783635606C4EB5
:1038E000083633603F263F1D3E6002E016783607FB
:1038F00004D10678C6F30316052E02D0062957D048
:1039000062E0644E3668644F3E60624E361D366833
:103910003F1D3E605F4E083636683F1D3E605D4E7F
:103920000C3636683F1D3E605A4E103636683F1DD5
:103930003E60584E143636683F1D3E60554E183670
:103940003668554F20373E60524E1C3636683F1D54
:103950003E60504E203636683F1D3E604D4E243648
:1039600036683F1D3E604B4E283636683F1D3E6030
:10397000484E2C3636683F1D3E60464E303636681F
:10398000454F40373E60434E343636683F1D3E60FB
:10399000404E383636683F1D3E603E4E3C363668F7
:1039A0003F1D3E603B4E403636683F1D3E6002E0A4
:1039B0001678360708D10678C6F30316032E06D00C
:1039C000042E04D0052E02D0062907D019E0D4F821
:1039D0005812324A01F04F01116002E011780907D4
:1039E0000FD10078C0F30310032803D0042801D0BE
:1039F000052806D12A480168C90702D06FF00101E5
:103A0000016022487438016841F470010160BFF31D
:103A10004F8FBFF36F8F4FF01021D1F800020028B5
:103A200003DBD1F80402002822DA1E4A15601E4882
:103A30000468002CFCD01524C1F800420568002D54
:103A4000FCD0C1F8044201680029FCD01360016871
:103A50000029FCD0BFF34F8F0C48F0380168134A9F
:103A600001F4E06111430160BFF34F8F00BFFDE738
:103A700010490F480860F0BDE00F00F040350140EC
:103A80000DF0ADBA00C007403C050040FCED00E081
:103A9000105600400404001020C50040E40E004011
:103AA0000004004004E5014000E401400400FA0580
:103AB0000090D003302B00200448017F04480029E7
:103AC000024901D004F0B3BC04F022BC88310020CC
:103AD0000020004010B5124C02202061606111A04E
:103AE000A06104F17800E0614FF4007020620020D2
:103AF000A06260620BA1A164E06204F51E71E16442
:103B00001021A065C4E91410E06509A1E01DFFF7CC
:103B100090FC08A12046FFF78CFC2020A07110BD6E
:103B2000983800205465726D696E616C0000000069
:103B30005254540053454747455200000269C1683A
:103B40008A4203D88068401A104400E0501A401E90
:103B500070472DE9F047C4681746894606464FF07E
:103B600000083069A04201D9051B02E0B168201AA3
:103B70000D1AB0686D1E001BA84200D80546BD4254
:103B800000D33D4670682A4620444946FFF726FC8C
:103B9000B0687F1B2C44A844A944A04200D1002453
:103BA000F460002FDDD14046BDE8F0872DE9F041FB
:103BB00004468846D4E90207C51BE16860681646DA
:103BC0000844B54206D94146FFF708FCB819E06041
:103BD000BDE8F0812A464146FFF700FC761B08EB62
:103BE000050132466068FFF7F9FBE660F0E7000088
:103BF000014A024900F026B8CD550200D42A00201F
:103C000002E008C8121F08C1002AFAD170477047A5
:103C1000002001E001C1121F002AFBD17047000003
:103C20000121202803DA81400548014003E04028B3
:103C300002DA2038814009B1012070470020704726
:103C4000FC06FFBD2DE9F04116460F46044600254F
:103C500003E03946B047641C6D1C20780028F8D179
:103C60002846BDE8F08110B501220221002001F0B4
:103C70006FF908B1072810D107220221012001F0B5
:103C800067F908B1072808D100210A22084601F087
:103C90005FF908B1072800D1002010BD022001F013
:103CA0004FB8000070B50024064D06E06868012199
:103CB00010F8340002F06CFA641C28788442F5D3C2
:103CC000002070BD942A0020F8B515000C46064669
:103CD00003D002F043FB10B105E00720F8BD02F06D
:103CE0000FFB0028FAD1104900204E600C70C1E98A
:103CF00002500E4D08610DE006EBC40069680091AA
:103D000081788DF801100078094A694602F092FA2C
:103D10000028E3D1641EE4B2EED2BDE8F840054AC3
:103D20000021024800F078B8942A0020CC870200D5
:103D300061560200B9540200134C0121208801EBA6
:103D4000004012A103F0EAF803F0AAF903F010F81A
:103D50000028FBD10F480068C00700D000BE2088B3
:103D6000032101EB00400CA103F0D8F8BFF34F8F03
:103D70000848E43801680D4A01F4E061114301602C
:103D8000BFF34F8F00BFFDE77C2B002046617461BD
:103D90006C000000F0ED00E0486974207765616B0D
:103DA0002068616E646C6572000000000400FA0512
:103DB0000EB500210091CDE901106A4644F20100E0
:103DC000FFF7BAFF0EBD10B58268C368934203D0F7
:103DD00001F0E9FB002010BD052010BD29B112B192
:103DE000531E134203D0092070470E207047016014
:103DF000838000218160C1600846704710B58268E9
:103E0000C3689A1A83889A4203D801F0D6FB00202F
:103E100010BD042010BD0000074B9B7823B12AB1D0
:103E200020B10068037C1BB1082070470720704751
:103E30004174426100207047C831002070B503F022
:103E4000E5FD104800240B21047044700E4D817074
:103E500014206C602C706C70FFF70CFC0721142090
:103E6000FFF729FC1420FFF710FC08480460072125
:103E70001120FFF720FC0548001F0068A860002003
:103E800070BD0000C8310020A82A0020081501409C
:103E90002DE9FC47DFF8789099F802306BB360B3F6
:103EA00049B343694BB3437C012B28D00027044618
:103EB0000025884616468DF80050684600F0CEF87A
:103EC00001A804F0BFFBE0B1012101701149446079
:103ED0000968C0E90218C0E904769DF8040089F871
:103EE00001009DF8000000F0DDF81420FFF7D8FB7A
:103EF0002846BDE8FC870720FBE70820F9E70F46C6
:103F0000D5E704259DF8000000F0CCF8F0E70000AC
:103F1000C8310020041501400649897839B130B113
:103F2000416921B100210174022104F081B8082007
:103F300070470000C831002070B50A4E01460A489B
:103F4000B578FFF740FF04464DB10020B070711CFA
:103F50000122C81D02F048FA08B1FFF729FF2046E8
:103F600070BD0000BC2A0020D4320020F0B5284EDD
:103F700089B01F460D00044672603BD0A8882968AE
:103F800082B22448FFF72AFF002834D1A889A96803
:103F900082B220481030FFF721FF00282BD12022C9
:103FA0001D496846FFF71AFA60690690207C00B147
:103FB00001208DF814008DF81C70607C00B10E207B
:103FC0008DF81500E0680290A068039020680190C9
:103FD000606800900E48114A6946083002F0D0F936
:103FE000002808D1B0702068401C04D09DF81D0046
:103FF00018B106E0072009B0F0BD0548083002F00E
:104000004BFA03490122491CC81D02F0EDF9F2E701
:10401000BC2A0020D4320020D48702007182020022
:1040200010B501460B48FFF7E9FE040010D10A481D
:1040300002F07CFB60B9084906480839FFF7C3FE67
:1040400030B9054901220839034802F0E9FA04466B
:10405000204610BDE4320020C42A002030B5EFF322
:10406000108172B60D4A9468012324B103700029AF
:1040700000D162B630BD93604FF0E023D3F8805199
:10408000074C25401560C3F88041D3F88441546043
:104090005A17C3F8842100220270E8E7F4320020A6
:1040A000FC06FFBD0B498A68002A11D000280FD1F9
:1040B000EFF3108072B60B684FF0E022C2F80031C7
:1040C0004B68C2F8043100228A60002800D162B631
:1040D00070470000F43200202DE9F04106460868E0
:1040E0000C46411C4FF0A0474FF0010506D005FAE1
:1040F00000F1C7F80815206802F00DFD6068411C4A
:1041000002D0002102F0FEFC3079204901EB401082
:10411000A169007F00283068C0F8241525D0607D93
:10412000227D31681043C1F86C05D4E90012306873
:10413000C0F80C15C0F8142524E0A068411C02D07A
:10414000002102F0DFFCE068411C05D08540C7F883
:104150000855E06802F0DFFCD4E902123068C0F8CC
:104160000825C0F81015BDE8F081607D217D32681A
:104170000843C2F86C05D4E900123068C0F8142571
:10418000C0F80C15207D0128D7D0ECE7883100203D
:104190002DE9FC47002517880646158090F82D006C
:1041A0001446894630B13A462146484600F008FB9D
:1041B000050009D1B0784FF00C0A18B32088C84622
:1041C000001DB84202D95046BDE8FC87684679DF39
:1041D0000028F9D12088032108F80010208819212F
:1041E000401C80B2208008F800102088401C80B25B
:1041F000208000EB0801BDF8000004F090F9218850
:1042000008442080F0780222C8B1218896F9033052
:1042100001F1030C4846BC45D5D8425421884FF0E3
:10422000010C491C89B2218000F801C02188491C79
:1042300089B2218009F801302088401C20807068F4
:10424000B8B1218890F9003001F1030C4846BC4513
:10425000B9D8425421880A22491C89B2218042548B
:104260002188491C89B2218009F801302088401C2E
:104270002080308950B1CDE900474B46062202210B
:1042800006F1080004F0F6F905009DD1308A50B11E
:10429000CDE900474B460722032106F1100004F048
:1042A000E9F9050090D1308B50B1CDE900474B467C
:1042B0001522142106F1180004F0DCF9050083D161
:1042C000306A30B13B462246494601F08BF8050082
:1042D000DBD1706A30B13B462246494601F0A8FC6A
:1042E0000500D2D196F82C0038B13B46224649460B
:1042F000304603F065FD0500C7D1307838B13B4644
:1043000022464946304601F01DFD0500BDD1284634
:104310005AE7F0B50C4693B01F210726ADF8001000
:10432000ADF80410002750B1C17849070DD56A4691
:1043300002A9FFF72DFF002808D102AD02E00025F9
:10434000ADF800706CB1E07810B1304613B0F0BD3C
:1043500001AA0AA92046FFF71BFF0028F6D10AAAE6
:1043600002E00022ADF80470BDF80400C3B2BDF84D
:104370000000C1B2284672DFE8E780F824107047D9
:1043800070B50D00044653D0F4B301202070002610
:10439000E670202205F17801201DFFF71FF884F850
:1043A0002460D5F89800C4F8CC00D5F89C00C4F877
:1043B000D0004FF6FF70A4F8C800C4F82560A4F838
:1043C000296084F82B6004F130003C210646FFF799
:1043D0001EF8287884F83000A87884F83200E8784D
:1043E00084F83300687884F83100D5E90401C4E921
:1043F0001001D5E90201C4E90E01D5E90601C4E9BD
:10440000120195F82D0000E012E084F85D00686A62
:10441000D8B104F1780104F16C0061676065696AE4
:1044200009880180686A616D80888880002008E0C2
:104430000E2070BD696A22188968095C82F87810BC
:10444000401C616D89888142F4D8A86AE8B104F102
:10445000A400C4F8A0000C38A065A96A89888180EE
:10446000A86AA16D00880880002006E0A96A2218C9
:104470008968095C82F8A410401CA16D898881427A
:10448000F4D895F82C0084F85C00286A48B104F14F
:10449000C4002065296A49884180286A216D008806
:1044A0000880686800B1606305F13C013046BDE8F2
:1044B0007040FFF72EBF10B50288102A1AD0112ABB
:1044C0001FD01B2A1CD1007A0C46002818D1E07896
:1044D0000521401CB0FBF1F201FB1201204600F067
:1044E00055F800280CD0D4F8D010002908D0BDE829
:1044F00010400847C27B012A02D18088A1F8C80079
:1045000010BD0C46002184F8D4108088B4F8C8107F
:104510008842F5D120790028F2D10121DEE710B5DB
:104520000C46022801D0032811D1607800280ED053
:1045300000206070E178204600F028F8002806D0BE
:10454000D4F8D010002902D0BDE81040084710BDB3
:1045500010B5044674DF012084F8D400002084F8EC
:10456000D600062084F83300002104F13000FFF764
:10457000D0FE002809D1E178204600F007F818B1F4
:10458000D4F8D01001B18847002010BD2DE9FF47B5
:10459000044600780F4638B1E770002002F0D8F9E1
:1045A000012628B16670D2E0082004B0BDE8F0878B
:1045B0000025C4F82550A4F8295084F82B50A07980
:1045C00010B1E078012806D0E07970B1E0780128D8
:1045D00001D0022809D1D4F8CC1021B184F82C6084
:1045E0000820884701E084F82C5004F126010020BF
:1045F0000A5C0AB1304603E0401C0628F8D30020CC
:104600004FF002084FF0030A4FF00409012F06D0C3
:10461000022F09D0032F0CD0042F12D10DE0A17965
:1046200011B108B130460DE0E17911B108B1404651
:1046300008E0207A08B1504604E0607A08B14846A4
:1046400000E02846E070D4F8CC1041B1032801D036
:10465000042804D1607910B194F8D400A8B184F88A
:10466000D55000950295019503958DF800508DF871
:104670000850E17804F1250004F13002052958D2F0
:10468000DFE801F0670A131F3B0084F8D65084F876
:10469000D56007208847E4E7A67001908DF8006098
:1046A000ADF80C50ADF80A5043E084F80280019058
:1046B0008DF80060208AADF80C00A089ADF80A00E2
:1046C00037E0A08AADF80A00208BADF80C006079C5
:1046D00080B194F8D40068B994F8D60050B18DF840
:1046E000088084F8339000211046FFF712FE00BBCB
:1046F00005211AE084F802A01BE0A08BADF80A00A7
:10470000208CADF80C00607988B194F8D40070B9B1
:1047100094F8D60058B18DF8088084F833900021C1
:104720001046FFF7F6FD20B90621A17001E084F8DC
:104730000290E07830B194F82410684673DF0028C6
:104740007FF433AFD4F8CC1009B1A07888470020AB
:104750002BE7A570F6E7000070B5040012D0014603
:104760001C221448FEF73AFE1248134D05602068DB
:1047700050B17ADF002806D12068016829604068BE
:10478000686005E00E2070BD0B487BDF0028FAD181
:1047900008484FF6FF711438084A20F8041B0549F1
:1047A000343901600021FFF737FB0028EBD00320EC
:1047B00070BD0000483000208C2A0020DD850200FA
:1047C0007CB5054608880C460930904201D90C207A
:1047D0007CBD68466DDF0028FAD121880820685426
:1047E00020881B21401C80B2208029542088401C36
:1047F00080B220802844DDF801100160BDF805106A
:1048000081802088801D80B220809DF8001049089A
:1048100000D0012129542088401C208000207CBD2C
:1048200070B5454D018800226E8888B00446232962
:1048300045D020DC41484FF003031129008803EBE9
:10484000004024D00EDC012952D010292BD13CA1EC
:1048500002F064FB072000F09DFB08B1FFF7A8FA07
:10486000A0881FE0132924D021291CD10092A08800
:1048700069468FDF29E03B2936D051293CD05229A7
:1048800026D056290FD18088132176DF25E02FA16D
:1048900002F044FB002000F07DFB08B1FFF788FA2E
:1048A0004FF6FF70688008B070BD00BFFFF780FA58
:1048B000F9E700231A46852130467FDF0DE000929C
:1048C000019280880022694690DF0028EED1EAE755
:1048D00000231A4619463046A9DF0028E3D008B065
:1048E000BDE87040FFF764BA8088132176DFF4E7F3
:1048F000A088002166DFF0E71022A11D04A8FEF7C2
:104900006DFD9DF810100029CDD09DF818000428E9
:1049100003D0062801D00528C5D102290AD00120DC
:104920008DF800004FF4C170ADF80400A08869460E
:10493000A8DFCAE70220F3E7682A00207C2B0020CA
:10494000436F6E6E65637465640000004469736351
:104950006F6E6E65637465640000000010B51A4CDC
:104960000188606810290ED011292BD1401E60608B
:1049700028D1FFF778F9002824D02168002921D018
:10498000BDE810400847D0B900210122084600F0D8
:10499000DFFA08B107280FD107220221012000F019
:1049A000D7FA08B1072807D104220221002000F01D
:1049B000CFFA20B1072802D0216801B1884760688A
:1049C000401C606010BD0000842A00202DE9F047E3
:1049D00001883B4E40F2F3194FF6FF7510291BD0AA
:1049E00011293ED0122954D0502946D1C188F289CC
:1049F000841D914241D1618902293ED18688304689
:104A000000F05AFE050038D004F10C0000F07EF9E9
:104A1000A8B3294630464EE0C17B87880446012969
:104A20002BD1A846284600F047FE050017D02F805E
:104A300000202872234843464A460168C5F80A10F8
:104A40004068C5F80E0004F1100105F10A0000F0FD
:104A5000CDFE6872F08900280FD129462AE0042093
:104A600013E0808800F028FE040006D06068FFF79D
:104A700053FA08B103F086F92580BDE8F087FFE717
:104A80006868FFF749FA0028F7D0BDE8F04703F05F
:104A900079B987880646384600F00EFE0400ECD04F
:104AA0002B464A4606F1080104F10A0000F09EFE7A
:104AB000607221463846BDE8F04700F0D9BC0000DE
:104AC000483000208C2A00202DE9F0470446038856
:104AD0003F480122A4B000F1480A102B09D0112B45
:104AE00054D01A2B70D1217AB2EB111F53D201236B
:104AF00052E0D0E911218A430546011D12A803F0B6
:104B000014F9442212A901A8FEF768FCDFF8C0904E
:104B10000026374609F144090DF104080AE000BFF8
:104B200008EB46001D2283884946281D009703F0A4
:104B3000C1F8761C0198B042F2D8686CA688C043D0
:104B400003F0DAF8A0F57F41FF3917D005EB4000FC
:104B50000123868032465146281D03F00BF90123BC
:104B600032464946281D03F005F9E07B02280BD0A8
:104B700000231749A2884C31281D20E024B00420CE
:104B8000BDE8F047FFF714B90123F2E70023A2883C
:104B90005146001D13E000230D490546A2885031FF
:104BA000001D03F0E7F8207A0221B1EB101F01D2BB
:104BB000012300E000230649A2885431281D24B0B7
:104BC000BDE8F04703F0D6B824B0BDE8F087000098
:104BD0006430002030B5174B0D4604000FCB85B074
:104BE0008DE80F0023D015B34FF6FF70A082286820
:104BF000A0610020A0752146684662DF002814D11C
:104C000020788DF812000120ADF81000A21C04A934
:104C1000A0DF002809D12946204602F02EFF0028F7
:104C200003D12946204603F071FA05B030BD0E20AD
:104C3000FBE70000B88702007FB5002917D00028E5
:104C400015D00288102A0DD0112A0DD0502A0FD06D
:104C5000572A0CD11A4B1868D3E902238DE80F00AC
:104C600089692AE0808801E04FF6FF7088827FBD65
:104C700001910C46821DC3880989002512308B42A0
:104C800002D1518902290CD0A1898B42EFD1A169AF
:104C90000029ECD002905089ADF80C008DF800503E
:104CA0000AE000F033F818B10120A075022001E0FD
:104CB000A57503208DF80000A169684688477FBD6F
:104CC000A88702001FB560B1838AA3F57F44FF3C2B
:104CD00009D0837D3BB11388F42B06D9072004B09B
:104CE00010BD0E20FBE70820F9E700230093019395
:104CF000029303938388CDE90221ADF800300121AE
:104D00008DF80210808A6946A6DFE8E7007800F097
:104D1000010070470149085C70470000608702008D
:104D20000649095C4FF0A040D0F81005C84010F0CB
:104D3000010000D0012080F0010070476087020070
:104D400007490B5C4FF0A041D1F8042501209840A1
:104D500020EA0203C1F808351040C1F80C0570477D
:104D60005C8702000249085C012101F000BF0000DD
:104D70005C8702000249085C002101F0F8BE0000D7
:104D80005C8702000649095C4FF0A040D0F804059A
:104D9000C84010F0010000D0012080F001007047F1
:104DA0005C8702007CB50024084E25460122305D58
:104DB000009500231146019501F06EFE641C042C41
:104DC000F4D3BDE87C4000F003B800005C8702002B
:104DD00010B500242046FFF7C5FF641C042CF9D34E
:104DE00010BD10B500242046FFF7C4FF641C042C3E
:104DF000F9D310BD10B50246064B4FF0FF3000212D
:104E00005C5C944201D1084610BD491C0429F7D3CB
:104E100010BD00006087020070B50C4E0C004FF012
:104E2000000530600BD0012000F06AF808B10220C4
:104E300004E0002000F064F800B10B2020707068DE
:104E400010B9FEF710FF0546284670BD842A0020E1
:104E500010B5002000F0D0F908B1062806D10120D5
:104E600000F0CAF908B1062800D1002010BD0000EA
:104E70002DE9F0470D468146FFF7BCFF04460428A4
:104E800036D2DFF874801B481C4EA8F10C0725B3FE
:104E9000012D0ED0022D2BD104EB44003044457877
:104EA000002D25D0B968002922D02846BDE8F0475A
:104EB000084704EB4401755C0E44717849B10E4A11
:104EC0004FF40041093A8068FEF7E2FF08B987F81D
:104ED0000390B17808F80410E2E78068FFF71CF847
:104EE00004EB4401314418F804008D78A842D7D06F
:104EF000BDE8F08764870200802A0020E82F0020A8
:104F0000FFF70EBF0146104810B54088042907D0AE
:104F100007290ED00A2915D1BDE8104002F094BF30
:104F2000132176DF0CE000280CD0BDE81040FEF71E
:104F30003FBFA0F57F41FF3904D10448FFF708FBCC
:104F40000828F0D110BD0000682A0020D02E0020D3
:104F500070B50023042810D20D4D00EB4004012A47
:104F600002D101290CD00022094E00EB4000304450
:104F700061B1012906D0022906D00723184670BD69
:104F80000E30C2B22A55F9E74270F7E78270F5E7B2
:104F9000E82F0020044A014600201279D20702D0EF
:104FA000084600F04DB87047742A002070B50646D8
:104FB0001E480024C0E90161B00720D50025012268
:104FC00011462846FFF7C4FF6D1C0446042D02D28B
:104FD000002CF4D013E094B940F266620421144826
:104FE000FEF772FE04000AD1FEF75CFE040006D153
:104FF0000F48104A0021001FFEF70EFF0446F0077D
:1050000001D0FFF7CFFE74B909480B4A00210C38D4
:10501000FEF702FF040006D10548084A01210838BE
:10502000FEF7FAFE0446204670BD0000742A0020F8
:105030007087020095520200615802009D3C0200F8
:105040002DE9F05F6A4C054600266078B34618B13A
:1050500084F801B000F0ECFB664F4FF47A694FF42E
:10506000C87A4FF00108182D62D2DFE805F0AC0CC9
:105070000C31404D62676B746B74BE7D7D7D7D7DB0
:10508000ACAFB2B5BEBE0020FFF77CFE00284FF0EB
:10509000000008D0FFF766FE022D02D14FF4E16058
:1050A00008E0484606E0FFF765FE022D01D1C82062
:1050B00000E05046410CC0034FF4FA72801841F1F1
:1050C0000001257052000023FEF752F901462AE044
:1050D0000020FFF757FE00284FF0000004D0FFF734
:1050E00041FE4FF44870E5E7FFF744FEDFE700209C
:1050F000FFF748FE00284FF0000002D0FFF732FE15
:10510000CFE7FFF737FED4E70020FFF73BFE00288C
:105110004FF0000002D0FFF725FE01E0FFF72AFE66
:10512000257041F69A1100223868FEF7B1FE064656
:1051300046E00020FFF704FE257008E0002051E063
:1051400025703DE084F801800120FFF7F9FD002281
:1051500040F6CD41E8E784F801800120FFF7F0FD3B
:1051600000224FF48041DFE77868FEF7D5FE06465F
:10517000D5F1110000D02EB10220FFF7F3FD84F825
:1051800002B01DE0012816D980B2C8214843C117DA
:10519000C90341EA5041C0034FF4FA72801841F14B
:1051A000000152000023FEF7E3F801460022786870
:1051B000FEF76EFE06460220FFF7DCFD84F8028053
:1051C0003046BDE8F09F00F033FBB9E700F030FB5C
:1051D000B4E700F02DFB04E000F02AFB0020FFF70D
:1051E000C9FD0120FFF7C6FDAAE7FFF7FAFDA7E713
:1051F000742A00206487020010B5FFF78BFD03219D
:1052000001F093FC002010BDF8B5861C00208DF83D
:1052100000000C4601276846FEF720FF0F48016892
:105220002160D0E90012891A82680446511AB51C1F
:1052300007E000BF00F0BAFBD4E90001401AA16802
:10524000091A491C8D42F5D82068304420609DF829
:105250000000FEF727FF3846F8BD00007834002034
:1052600030B482680468531C8360A154D0E90112F1
:105270008A4202D330BC01F072BA30BC70470000E1
:10528000034803C8814201D10120704700207047C4
:105290007834002000780221FFF7EABD05494FF07D
:1052A000FF32082841F8202002D3084480F8482023
:1052B0007047000030310020F0B54FF0FF3512B1DB
:1052C0000023082601E008230C260C4C05E000BF53
:1052D00054F823707F1C04D05B1CB342F8D32846DB
:1052E000F0BD26185DB286F8305044F82310002A2D
:1052F000F5D1E11881F84800F1E7000030310020D5
:105300000249084490F93000704700003031002015
:1053100070B5084C050009D010342168002907D069
:1053200008682060496828468847F6E70834F4E7AB
:1053300070BD00001C3100202DE9F05F2648416857
:10534000F1B3DFF898B00E688146DBF8004087685B
:105350008078E11B21F07F45ED1CB0B9DFF880803B
:105360004FF48030C8F84403C8F804031120FEF756
:1053700081F91120FEF789F94FF0010AC8F800A061
:105380002F2000F065FE89F802A0B54200D2354614
:10539000124BE8193C3320F07F401860DBF8001016
:1053A0005A46091B21F07F41001B20F07F40C91C99
:1053B00081420FD9106818602F2000F049FE00E0EC
:1053C00004E0BDE8F05F1120FEF76AB9BDE8F05FC8
:1053D00002F01CBBBDE8F09FA82A00200415014084
:1053E000001001402DE9F04117880646B81D14460B
:1053F0000D46984202D90C20BDE8F0813188072281
:1054000006290AD34FF4486C4FF6FF73614501D962
:10541000994202D17088062801D21046ECE7604517
:1054200001D99842F9D1994203D0984201D08142E2
:10543000F3D80520E85520881221401C80B2208036
:1054400029542088401C80B220804119308803F004
:1054500066F82188084480B220804119708803F0E2
:105460005EF82188084420800020C5E7FEF7A0BC34
:1054700038B54A7A0F4B62B100220A725969002985
:1054800006D001228DF80020ADF80200684688475A
:1054900038BD0A7A62B19B684C68024619462046BC
:1054A000FEF7F6FC0028F3D0BDE8384002F06ABCF5
:1054B0005B68F1E7483000202DE9F0410026012526
:1054C000144C22E06068226900EBC607387805FAC0
:1054D00000F1114217D08A43226100F007FF024613
:1054E0003878E36805FA00F1194002FA00F39942AE
:1054F00009D17978012901D0012100E00021514032
:105500007A6802B19047761CF6B220788642D9D3E9
:10551000BDE8F081942A00200E4910B50A784C7835
:105520000023A24212D0521CD2B20A70022A00D129
:105530000B70084A0B780C3252F8232002608868FE
:10554000104420F07F408860012010BD03600020DF
:1055500010BD0000A82A002030B50446006885B0C0
:105560000D46806800281CD014216846FDF74FFFC7
:105570000195A0680490207910B101280DD104E0B4
:1055800001208DF80000206904E002208DF8000061
:10559000E0680003029060690390206881686846B3
:1055A000884705B030BD826883881A4003689A5CDA
:1055B0000A708168491C81607047C26883881A40FC
:1055C00003689954C168491CC160704710B504460E
:1055D000C0B2FEF725FD204610BD00000B484A88EA
:1055E00043889A4211D10A88A2F52063773B0CD1F7
:1055F0008988C91E8AB28280054803211346008823
:1056000001EB004003A101F094BC7047682A002020
:105610007C2B002044617461206C656E20697320CE
:1056200073657420746F203078255828256429000C
:1056300010B50949094800F046FC08B1FEF7B8FB6F
:105640004021064800F033FC002803D0BDE810409C
:10565000FEF7AEBB10BD0000DD550200BC2E0020E1
:105660002DE9F041124E07460125BD403068FEF796
:1056700053FC00280DD10F4C2069284207D1384631
:1056800000F034FE0028E06805D0284304E0A84379
:105690002061BDE8F081A843E060206928432061D3
:1056A000A1683068BDE8F0410022FEF7F1BB0000C0
:1056B000CC870200942A00200146034802888A42CF
:1056C00000D0002070470000343000202DE9FC5F3E
:1056D0000E008346DDE90C47C6F10000984692466D
:1056E000814600D40846012503E000BF90FBFAF094
:1056F0006D1C5045FADAA84500D9454624B1002E64
:1057000001DB780700D5641EB80702D5B8F1000F99
:105710000AD0F80708D13CB1A54205D2202158464D
:10572000641EFFF79DFDF6E7002E02DA4E462D219E
:1057300002E0780703D52B215846FFF791FD07F0CB
:10574000030002280BD1B8F1000F08D13CB1A542EB
:1057500005D230215846641EFFF782FDF6E7CDE9F9
:105760000047434652463146584602F0DDFEBDE84A
:10577000FC9F000070B50E460446007918494FF4AE
:10578000A27501EB4010017F2068A1B14FF4887130
:1057900001F09EFF4FF49071206801F099FF4FF4E3
:1057A0009271206801F094FF2946206801F090FF73
:1057B0000C49206809E04FF48E7101F078FF29460A
:1057C000206801F074FF08492068C0F804132068BD
:1057D00000F0DAFC3146BDE8704000F0B9BC0000D2
:1057E000883100201003020080000200F0B5848898
:1057F000A518944200D82246A41AC288D6189A4204
:1058000000D81346D21A4B880788BB420CD3408875
:10581000834209D88888A04206D3A84204D8C88801
:10582000904201D3B04201D90020F0BD0120F0BD6B
:105830000A4810B5807860B1002401E0022C06D03F
:105840002046FFF78FFA641C042CF7D310BD032405
:10585000F6E7BDE81040FFF7BBBA0000742A00204D
:1058600003480179C90702D00078FFF7E9BB704708
:10587000742A002006490120086006480168C1F327
:1058800000410029FAD104490020887070470000C7
:105890000C000040180400401C310020F72101805A
:1058A00017214180002101714171FB2181711B2170
:1058B000C17170472DE9F047394E002780463D46BB
:1058C000DFF8E090D6F804A057E003D00446D0F803
:1058D0001C8035E099F8002002EB4201521CD2B244
:1058E00089F8002009EBC10199F80230091D9A429C
:1058F00001D189F8005048680A780446012A12D07C
:10590000022A02D0032A3BD108E002F061FB00B179
:105910000127257434E00574C06900E07068002830
:10592000F9D170602CE0207C50BB88686060C8684A
:10593000A0600869E0604869A061F07800B1656026
:105940006268B168184B501A20F07F40984202D22A
:10595000A168084406E0881AA16820F07F408142CF
:1059600002D9081A206000E0256065600120A5606A
:1059700020742046E56102F00DFBB8F10000A4D1CF
:1059800099F8001099F801008142A3D117B9716804
:10599000514502D00120BDE8F0870020FBE7000060
:1059A000A82A0020C8310020FFFF7F002DE9FE4318
:1059B000214DD5E9014704EA070005EB800605F50E
:1059C00083600C3600F012FA05F21440804600F0B5
:1059D0000DFA0AE0C0F3891101EB9050641C0444F5
:1059E00004EA070005EB80060C3630688107F1D029
:1059F0000020694604EA070205EB8202641CD268B3
:105A000041F82020401C0228F4D3009800F0030045
:105A1000022800980AD0C0F383100444404600F0E6
:105A2000DFF9002800D06C60BDE8FE83032101EBA4
:105A3000905004EB9004F1E778340020A8B0FEF712
:105A4000FDF908B1FEF7B4F9182263496846FDF77D
:105A5000C5FC6248069062494FF48070CDE90701A9
:105A6000099007235F4A06A96846FEF77FFA08B146
:105A7000FEF79EF9002001F0BBFA08B1FEF798F995
:105A800001F068F958490320FFF790FA08B1FEF7D2
:105A90008FF969460020FFF7BFF908B1FEF788F9D2
:105AA00001F042FD08B1FEF783F9002469460120A8
:105AB000009401F0DDFB08B1FEF77AF9684601F0C9
:105AC00083FC08B1FEF774F99DF8080047A120F0A7
:105AD0000F00401C20F0F00010308DF808000B2261
:105AE00002A87CDF08B1FEF763F900941020ADF83E
:105AF00000003C200194ADF80200ADF804404FF4E2
:105B0000C870ADF8060068467ADF08B1FEF750F9B4
:105B1000FFF78EFD3848009069463848FFF75AF87D
:105B200008B1FEF745F9A0216846FDF770FC022098
:105B30008DF800008DF8024005208DF8030001204B
:105B4000ADF84C008DF87C0040202D492290149136
:105B5000B42023902B482690284869463030FEF721
:105B60000FFC08B1FEF724F9244801213030FEF77C
:105B700004FC1C216846FDF74AFC4FF42030CDE9B7
:105B800000404FF4702002901F48059003251F48E5
:105B90008DF80C500690ADF80E408DF81040684618
:105BA000FEF7DAFD08B1FEF703F919A0FEF720F8B9
:105BB0001B481CA1008805EB004001F0AFF90F481D
:105BC00003213030FEF7E2FC00E03EDF0028FCD08D
:105BD000FEF7EEF8F9E7000044870200A02C002051
:105BE000A02D002005820200054F02004E6F726456
:105BF00069635F5541525400DD760200A02E0020FB
:105C00006E2A00206D770200917702006D54020029
:105C10000D0A5541525420537461727421000000E2
:105C20007C2B002055415254205374617274210022
:105C300070B5144682880E4605462088111D014421
:105C4000921C994201D8FE2A01D90C2070BD521C29
:105C500032542088FF21401C80B22080315420889B
:105C6000401C80B220808119288802F058FC2188CD
:105C7000084480B22080AA8842B1A96841B130446A
:105C8000FDF7ACFB2088A98808442080002070BD67
:105C9000072070BD2DE9F047C7880446181D164639
:105CA0008946B0FBF7F1B0FBF7F207FB12009A1937
:105CB0003A44D21CB2FBF7F2DDF820A001E02468E0
:105CC000491E0029FBD13D1A8846B54216D818E076
:105CD000BAF1000F05D0211809EB08002A46091D6A
:105CE00004E0204409EB08012A46001DFDF776FB7D
:105CF00000202468761BA844B74201D9354600E04D
:105D00003D46002EE4D1BDE8F087000030B50B46DB
:105D1000024601F09BF963B10021094C0CE000BF81
:105D200001EB410304EB830315685B88AB4202D1AE
:105D30001160002030BD491C8142F1D3052030BDE7
:105D4000342B0020F8B50E4601781446054601298B
:105D500001D1687830B12088821C9A422DD801295F
:105D600002D006E00720F8BD69780144891C9942F9
:105D700023D8181A801E87B2ADF800702188B01C95
:105D8000084469467DDF0028EDD12878022805D136
:105D9000BDF80010B94201D809210AE00821012804
:105DA00005D16878B84202D8ADF8000001E0ADF83E
:105DB0000070BDF80000FE2801D90C20F8BD228833
:105DC000401CB0542088401C80B220803154208870
:105DD000401C2080BDF80010084420800020F8BD41
:105DE00008B500216A46FDF77CFA08BD08B5012117
:105DF0006A46FDF769FA009808BD38B504460025E3
:105E00008DF800506846FEF729F921686268086835
:105E100090420ED9401E08600178238AE26801FB97
:105E20000325227A2168101AC0B20A79824200D270
:105E300008719DF80000FEF735F9284638BD38B5E1
:105E4000054600208DF800000C466846FEF706F96E
:105E5000E868298A201AB0FBF1F12A681068431C0F
:105E6000136001709DF80000FEF71CF938BD10B5F5
:105E700030B1017A42680368891AC9B21A6006E033
:105E80000E2010BD03681A68541C1C601170491E56
:105E9000C9B2F7D2006800210171084610BDC208DE
:105EA00000F007030120895C98400840704728B142
:105EB000A1F11702E12A03D3072070470E20704793
:105EC00001800020704710B560B10161F72120F812
:105ED000021B20F8021BFB2100F8021BFFF7DEFC6F
:105EE000002010BD0E2010BD2DE9F043858895B02F
:105EF0000C46002D3DD10188DFF824810026DFF813
:105F00002491012724293CD006DC102909D011292D
:105F10000CD023296DD150E03A290BD0552968D1F6
:105F20002AE00146204601F041FC62E0A01DFFF797
:105F3000B5FC5EE02246408934F8061F814200D855
:105F400008466080172800D217206080106970B161
:105F5000607960B1D8E90010CDE90310ADF80E50BA
:105F60006088ADF81000136903A910469847667160
:105F7000267115B0BDE8F0830146204601F064FCAF
:105F800037E0011D342206A8FDF728FABDF81800F5
:105F9000BDF81C2004EBC0014A7322694AB3D8E95A
:105FA0000432CDE90432ADF81200487B8DF81400BC
:105FB0002269204604A990471BE00496059630F814
:105FC000041F04EBC1020179127B8A4200D2114600
:105FD000ADF81010ADF812100088002204A990DF6F
:105FE000020006D0B9F800000F4907EB004000F0AE
:105FF00099FFA07A0028BCD0E18828469EDF0200E5
:106000000BD0112AB5D0B9F8000015B007EB00404D
:10601000BDE8F043054900F085BFA672E772A8E726
:1060200090870200342B0020D88A0200508A020098
:1060300000F180400068002800D00120704708B5BA
:1060400000F18040002101600068009008BD000060
:1060500000283ED01F49204A096800BF00BF00BF8A
:1060600000BF00BF00BF00BF00BF91422FD000BFE4
:1060700000BF00BF00BF00BF00BF00BF00BF00BF28
:1060800000BF00BF00BF00BF00BF00BF00BF00BF18
:1060900000BF00BF00BF00BF00BF00BF00BF00BF08
:1060A00000BF00BF00BF00BF00BF00BF00BF00BFF8
:1060B00000BF00BF00BF00BF00BF00BF00BF00BFE8
:1060C00000BF00BF00BF00BF00BF00BF00BF01385E
:1060D000C3D17047302B00200024F40070B50F4C62
:1060E0000025207808B1852516E00021A1606160B7
:1060F0002161E1604FF0E020D0F80001012610F0AE
:10610000010F03D10721002000F022F801F04AFA24
:1061100008B9034806602670284670BD1C3100206F
:106120001805004008B500208DF800006846FDF70E
:1061300095FF0648C168491EC160C06808B9FFF7ED
:1061400099FB9DF80000FDF7ADFF08BD1C31002054
:106150004907090E002806DA00F00F0202F1E022DA
:1061600082F8141D03E000F1E02282F8001400F030
:106170001F02012191404009800000F1E020C0F899
:106180008012C0F800117047000B40B27047000049
:106190002DE9F0418846054601F090FB234E00288A
:1061A00028461AD0FFF7ACF8304490F84800800930
:1061B000032802D001280ED007E04FF0A040D0F80D
:1061C0001005E84010F0010F05D003212846BDE876
:1061D000F04100F0BBBC0221F8E701F07BFB002896
:1061E00022D02846FFF78CF804464FF4807000EB6D
:1061F00084000F4F81B207EB8400D0F8102542F0E5
:106200000102C0F81025084600F0D0FCB8F1000FDC
:106210000AD02846FFF774F856F82000002803D06B
:106220000120A040C7F80403BDE8F0813031002010
:10623000006000402DE9FC41DFF8A480044608EB33
:106240000400002790F930001346C0170E46401C8A
:1062500001D0082741E0F27819462046FFF72CF8D4
:106260000546401C38D0B07850B14FF0A04000EB4C
:106270008400D0F8001721F00201C0F8001707E0F1
:1062800000217378204600910A46019100F016FC27
:10629000F078C0B11348317800EB8500D0F81025B4
:1062A000114B1A40C0F810254FF4F8524FF4403308
:1062B00002EA042203EA01410A43D0F810150A4316
:1062C000C0F8102509E008EB0500327810F8481FE7
:1062D00041EA8211017000E004273846BDE8FC81E4
:1062E0003031002000600040FFE0FCFF4FF0A04193
:1062F000D1F81015C14011F0010000D00120704705
:1063000070B5144D95F8540008B1082070BD0020F8
:10631000411E2A18401CC0B282F830102028F8D341
:1063200000242046FEF7BAFF641CE4B20C2CF8D31C
:1063300007210620FFF70CFF4FF4BE7000F036FC7B
:1063400005494FF00040C1F80403012085F85400CE
:10635000002070BD3031002000600040034890F8FC
:106360005400002800D00120704700003031002088
:106370000121B1EB507F01D101207047002070470F
:106380002DE9F04105460079164F904607EB401481
:106390000E46E07E10B10820BDE8F081707F2077C6
:1063A0002846FDF799FE5FEA0800606031692160C8
:1063B00003D0317F2846FFF7DDF9287907EB40103D
:1063C000007F0028286801D0082100E00421C0F8DF
:1063D00000150020E0752076A0750121E176A076F9
:1063E000DAE70000883100202DE9F0410546007908
:1063F000284E904606EB40140F46207F18B1084601
:10640000FFF7B6FF80B1626800234FF404704FF4C9
:10641000017172B12A7906EB4212127F002A2A68B2
:1064200005D0C2F8080304E01020BDE8F081C2F8EE
:106430000813E27DB2B1227E7AB162685AB12A793C
:1064400006EB4212127F1AB12968C1F8040302E078
:106450002868C0F804131120E7E72761012384F8B6
:10646000188005E084F817800020E76060762076C9
:106470002879424606EB40103946007F002828461E
:1064800003D0BDE8F04100F073B8BDE8F04100F082
:106490001BB800008831002070B504460079094D12
:1064A00005EB4010017F00290AD1807E002807D12A
:1064B000204601F03FFB2179012005EB4111887650
:1064C00070BD0000883100202DE9F05F044600799E
:1064D000264901EB4015A87E184302D1204601F061
:1064E00029FB68680028206806D04FF40171C0F8C5
:1064F00004130020BDE8F09F4FF4A276314601F06E
:10650000D6F8B1464FF4927A4FF4847B5146206816
:1065100001F0C8F806465946206801F0C3F88046E5
:106520004946206801F0BEF8074648EA07003043B4
:10653000ECD056EA070007D12946206801F084FA1A
:10654000E87D697E8842E1D80020E8750EB103201D
:10655000D0E70FB10F20CDE7A97E012000292168E7
:1065600001D00860C5E74860C3E70000883100201B
:106570002DE9F05F894604464FF488759A469046A7
:1065800000260068294601F0A3F84FF4A2773946A7
:10659000206801F09DF82068C0F83495C0F838856F
:1065A0002068BAF1000F14D0D0F8001241F0200199
:1065B000C0F800122179DFF8648008EB41104068D0
:1065C00050B120684FF40471C0F804133046BDE8A0
:1065D000F09F01210160EDE7AA46B9464FF4927B96
:1065E0005146206801F06FF807464946206801F0DF
:1065F0006AF805465946206801F065F8014647EA01
:1066000005000843ECD02379002208EB4310C27543
:1066100001B10326002DD9D00F26D7E788310020FD
:106620002DE9F047054600793F4E904606EB4014B1
:106630000F46207F18B10846FFF79AFE30B1284672
:1066400000F074F820B11120BDE8F0871020FBE7BE
:1066500084F81680A7600027A78228794FF00108E8
:1066600006EB40143E46207F0028286825D04FF4D2
:106670009079494601F02CF84FF4AC7A51462868DD
:1066800001F026F82868A17DA268C0F84425C0F86A
:1066900048152868C0F808806068F0B9494628683D
:1066A00001F011F880465146286801F00CF858EACC
:1066B0000001F3D058BBA7750FE04FF48E7A514616
:1066C00000F0F5FF2868C0F808802146286801F02E
:1066D0000DFD61684FF4807089B13046B4E75146D2
:1066E000286800F0DFFF10B9A08A4845F7D1A08ADA
:1066F000484505D02146286801F0F8FC00E08146B5
:10670000A08AA17D8842EAD3A08A484501D10F26FC
:10671000D1E75146286800F0C5FF0028F9D0286865
:10672000C0F80C80C7E700008831002000790449D8
:1067300001EB4010807D002800D001207047000050
:10674000883100200FB408B50399002904D004AAA9
:1067500000926A4600F00FF801B05DF814FB10B526
:1067600082680446002A05D0D4E9040321689847CA
:106770000020A06010BD2DE9FC4791460C0080462A
:1067800076D014F8011B39B125290ED04046FEF70A
:1067900067FD20780028F4D198F80C00002867D015
:1067A0004046BDE8FC47FFF7DABF00200122217810
:1067B0002B291BD02D2902D0302908D102E040F02E
:1067C000010001E040F00200641C002AEFD1002526
:1067D0002A290ED02178A1F130020A2A11D205EB24
:1067E000850201EB4205641C303DF1E740F00400F6
:1067F000EAE7D9F800100B1DC9F800300968641CDD
:106800000D44217800232E290BD114F8011FA1F18A
:1068100030020A2A05D203EB830201EB4203303B2C
:10682000F3E76C290DD068290BD0692921D00BDC46
:10683000252918D0582931D063290ED0642915D1C3
:1068400017E014F8011FECE7702969D0732932D0E2
:1068500075291BD0782909D120E0D9F80000011D45
:10686000C9F8001001784046FEF7FAFC641C90E776
:106870006CE0D9F800100A1DC9F800200968CDE9BC
:1068800000500A224046FEF721FFEFE7D9F800103A
:106890000A1DC9F8002009680A2206E0D9F800108C
:1068A0000A1DC9F8002009681022CDE900504046B1
:1068B00001F03AFEDAE7D9F8001000270A1DC9F8FE
:1068C00000200E68C00705D112E04046761C7F1CF0
:1068D000FEF7C6FC31780029F7D104E020214046BC
:1068E0006D1EFEF7BDFCBD42C0D9002DF6D1BDE73F
:1068F0004EB13046FCF796FD074604E020214046A5
:106900006D1EFEF7ADFCBD4206D9002DF6D103E0A9
:106910004046761CFEF7A4FC31780029F8D1A5E7A3
:10692000D9F80000011DC9F8001005683021404663
:10693000FEF796FC78214046FEF792FC08200021E5
:10694000CDE90001034610222946B0E7BDE8FC87E7
:106950002DE9F04128B1016819B14969BDE8F0415C
:1069600008470D4D0D480024461B14270DE000BFBD
:1069700004EB840005EB8000016829B14969884770
:1069800010B10120BDE8F081641CB6FBF7F0A04215
:10699000EED80020F6E70000000000000000000034
:1069A00008B1012808D1054801218170017809B991
:1069B000407808B10020704701207047CC2A0020A1
:1069C000012801D0032808D10449002201288A7037
:1069D00000D00020C87000F0D5BF7047CC2A00203E
:1069E000F0B52B4E074687B030780025F0B3294C20
:1069F000022F206FC0EBC00004EB8001304602D0B4
:106A0000032F39D117E04560087910B1012833D13F
:106A10000AE0D1E90502801A4FF48053984200D36E
:106A200018461044886102E00869401C08614A6900
:106A3000904206D020E04268521C4260082A1BD9CE
:106A400045601C226846FCF7C9FC606F401E606709
:106A5000206F401C2067042800D125673570022F65
:106A600005D00D216846FEF777FD05E001E0002125
:106A7000F8E7707800B17570B07820B107B0BDE864
:106A8000F04000F095BD07B0BDE8F04000F07ABFDF
:106A9000CC2A00200033002070B541EA4201DDE934
:106AA00004564FF0A04441EA830141EA052104EB7A
:106AB000800041EA0641C0F8001770BD70B541EA98
:106AC0004201DDE904564FF0A04441EA830141EA66
:106AD000052104EB800041EA0641C0F8001770BDB3
:106AE00070B541EA4201DDE904564FF0A04441EAA5
:106AF000830141EA052104EB800041EA0641C0F828
:106B0000001770BD1CB500220B4600921146019281
:106B1000FFF7E6FF1CBD1CB5002100910B460122CA
:106B200001911146FFF7DCFF1CBD4FF0A04202EBC4
:106B30008000D0F8002722F44032C0F80027D0F8B7
:106B4000002742EA0141C0F8001770474FF0A04209
:106B500002EB8000D0F8002722F44032C0F8002772
:106B6000D0F8002742EA0141C0F80017704701221F
:106B70004FF0A043824011B1C3F808257047C3F815
:106B80000C25704718B5084B6C4601441B680093F0
:106B900006E000BF54F82030D3F81035401C08C27E
:106BA0008142F7D818BD0000C8870200034908B524
:106BB0000844002101600068009008BD00600040AA
:106BC00002494058012800D0002070470060004072
:106BD00070B5184A0024D2F81034194609E00D7A2D
:106BE000A54205D1641C0A2CF7DB4FF0FF341FE0EF
:106BF00049680029F3D1611C1AD00472D2F810142C
:106C000031B149684160D2F81014486000250BE0AA
:106C10000021C2F810044160F8E700231A46294613
:106C2000204600F01DFA6D1C00F010FAA842F4D8BE
:106C3000204670BD783400207047FCF78BBD70474C
:106C400008B5034A00924023024A00F005F808BD47
:106C5000957D020078330020F0B595B01C461546AE
:106C60000F4608461A9E00F0D3FA182109A8FCF72F
:106C7000CEFB0E96CDE909540023082203A938461D
:106C800000F0E0FA059806900498ADF81C0000208A
:106C90008DF820000398082600F00300012802D098
:106CA00002281DD03CE003983346850AC0F3C20099
:106CB0008DF81E0003980FA9C0F380008DF81F0007
:106CC0000398C0F38314A200384600F0BBFA09A869
:106CD000009006AB22460FA9284600F0F5F91FE008
:106CE0000398840DC0F3C2008DF81E000398C0F312
:106CF00080008DF81F00082C01D2254600E00825F1
:106D000033462A460FA9384600F09CFA2E44641BED
:106D100009AB06AA29460FA800F014F9002CEAD105
:106D2000384600F07EFA15B0F0BD0000084A01298F
:106D300002EBC00005D0022903D0032903D00429A7
:106D400003D00020704700797047407970470000F9
:106D50003C91020010B5FFF770FF04210348FFF7D4
:106D600037FF02490120487210BD0000D82A0020D8
:106D70002DE9FE4FFEF784FA10B10020BDE8FE8F2A
:106D800063480021C0F81414D0E9014604EA060162
:106D900000EB81014FF000090AE000BFC1F3891246
:106DA00002EB9151641C0C4404EA060100EB8101E2
:106DB000C9688A07F2D000216A46804604EA0600C4
:106DC00008EB8000641CC06842F82100491C0229BD
:106DD000F4D3009800F00300022800981CD0C0F300
:106DE0008311062900D3062161F389100090C0F3B6
:106DF0008310801C8100474800F0C1F9070075D05E
:106E000000F006FA4B4608226946384600F020FAA0
:106E100009F10809002557E0810D50228A46B2EB9E
:106E2000905F00D850210D4665F39F5000900831C7
:106E3000384800F0A4F9070058D000F0E9F94B46B3
:106E400008226946384600F003FA04EA0601701A7F
:106E50008000001D09F1080B854220D92C4E0C360C
:106E600030B1C2B208EB8101281A91460C3104E01E
:106E70003146EAB2002691463046C5B25B463846F6
:106E800000F0E6F90BEB090326B12A4631463846F5
:106E900000F0DEF90AF1030004EB90041AE008EBBD
:106EA00081015B462A4638460C31F1E704EA0600C8
:106EB00008EB80014B46042238460C31641C00F07C
:106EC000C7F909F104096D1C0098C0F38310A842AA
:106ED000ECD85FB11048FEF783FFD8F8105446464F
:106EE00005B140B1384600F09CF97460FEF7C8F96E
:106EF00080F0010042E7687A012804D12A68284618
:106F00003946126890476D68002DF4D1EAE7000019
:106F100078340020148902008C38002000231A469F
:106F200000F0ACBF08B5012300926A4600F0A6FF4E
:106F300008BD1CB5CDE9002302236A4600F09EFF80
:106F40001CBD00002DE9F0470E4680461C469246C7
:106F500008293ED894F80C9000202073194610465A
:106F600000F0E2FC0025B54206D218F805201AA16F
:106F70002046FFF7E7FB03E019A12046FFF7E2FBFD
:106F80006D1C082DEFD317A12046FFF7DBFB002572
:106F9000B54210D218F80570FCF71CFA0068C05D05
:106FA00010F03E0F01D03A4600E02E220EA12046FE
:106FB000FFF7C8FB03E00DA12046FFF7C3FB6D1CE4
:106FC000082DE5D301222146504600F08FFC84F8BD
:106FD0000C90BDE8F08700002025303278000000DA
:106FE000202020007C00000025630000200000001D
:106FF000114810B5FF218160002101604160C0F897
:107000001814C0F8141480F81C140C4800F007F988
:1070100000280FD10A480B490B4B401AC108002029
:1070200005E000BF00EB400223F82200401C88422C
:10703000F8D3002010BD000078340020148902002D
:107040008C9102003C910200342B0020024803493D
:10705000401AC008704700008C9102003C91020069
:107060001FB51146002443B901A8FEF74FFE20B911
:107070000348019900EBC100847904B0204610BD9B
:107080003C91020013B56846FEF740FE08B10020AF
:107090001CBD0248009950F831001CBD3C91020013
:1070A00070B508480125D0F8104480F81C5405E05C
:1070B000657221682046496888476468002CF7D1CA
:1070C00070BD0000783400202DE9FF4781460C9DFB
:1070D00000200C462F7B28739846164629461846F2
:1070E00000F022FC072E42D2DFE806F004090F165A
:1070F0001F2A360049462846FFF724FB37E0494659
:1071000028462268FFF71EFB31E0D4E900234946F8
:107110002846FFF717FB2AE0A0680090D4E9002377
:1071200049462846FFF70EFB21E0D4E90201CDE9EC
:107130000001D4E9002349462846FFF703FB16E087
:1071400004F1080007C88DE80700D4E90023494688
:107150002846FFF7F7FA0AE004F108000FC88DE8A7
:107160000F00D4E9002349462846FFF7EBFA002236
:107170002946404600F0BAFB2F73BDE8FF872DE992
:10718000F041058A80462D1F4819C01CB0FBF5F060
:10719000C6B24046FEF731FE041E19D00020207111
:1071A00001206071E58000272546761EC4F8008026
:1071B0000BE04046FEF721FE60B16179491C617128
:1071C000286005467F1CC0F80080B742F1D32046F6
:1071D000BDE8F081204600F002F80020F8E72DE934
:1071E000F041457901466B1E002201E00968521CFE
:1071F0009A42FBD30F680146002605E038460C682A
:10720000FEF71DFE2146761CAE42F7D3BDE8F081A5
:1072100008B501216A46001DFCF72FF808BDFEF7EE
:1072200026BE38B50446001D01216A46FCF732F837
:10723000009810F0FF0F04D12046BDE83840FFF75A
:10724000CEBF38BD38B501240094FEF723FD38BD0C
:1072500038B500240094FEF71DFD38BD20B1034968
:1072600009680160002070470E207047988902006D
:107270002DE9FE4305460E460846FFF7EFFF0028BE
:107280007ED18046CDF80080CDF804800124032013
:107290008DF80050ADF80400CDF808808DF802405C
:1072A00069462020326869DF3F4F40B100F0F0F9B5
:1072B000024638883D4904EB0040FFF733FECDF825
:1072C00000808DF800408DF80180CDF80480CDF865
:1072D00008808DF8028069464020326869DF40B13D
:1072E00000F0D6F902463888314904EB0040FFF738
:1072F00019FECDF800808DF80050F720ADF802009F
:10730000CDF80480CDF8088069462320326869DF13
:1073100040B100F0BDF902463888264904EB004030
:10732000FFF700FECDF80080CDF80480CDF808808E
:107330008DF80040454669460120326869DF40B15A
:1073400000F0A6F9024638881B4904EB0040FFF71D
:10735000E9FD1A4801950295406800906946A12010
:10736000326869DF40B100F093F902463888144969
:1073700004EB0040FFF7D6FD00950195029500E073
:1073800010E08DF800506946A020326869DF40B1F6
:1073900000F07EF9024638880A4904EB0040FFF706
:1073A000C1FD0020BDE8FE83942B0020E48F020085
:1073B0002C90020078900200448F0200988902000D
:1073C000908F0200F08E02002DE9F041044607681C
:1073D00060DF2268134D0646BA4214D0288802277F
:1073E00007EB004010A1FFF79DFDF806D0F80C0157
:1073F0002168800200F10050421A288814A107EB8E
:107400000040FFF78FFD56B1304600F041F90246CB
:107410002888012101EB004017A1FFF783FD3046CA
:10742000BDE8F081942B002052414D2073746172AD
:10743000742073686F756C642062652061646A757E
:107440007374656420746F20307825782E000000F6
:1074500052414D2073697A652073686F756C6420A2
:1074600062652061646A757374656420746F20308E
:107470007825782E0000000073645F626C655F659C
:107480006E61626C6528292072657475726E656420
:107490002025732E0000000030B5EBB04FF4CE7500
:1074A000ADF8A8516AA9684661DF30B1052816D049
:1074B0006BB0BDE83040FCF77BBC6C46094967A85F
:1074C00000F0A2F807E000BFD0E900212046904775
:1074D00067A800F0B0F869980028E1D0F4E76BB035
:1074E00030BD0000A089020010B50E4C2078B8B164
:1074F0000120A07000F0B0FB11280FD0022000F096
:10750000C3FB11DF00280AD12070A070162000F004
:1075100021FB002803D1032000F0B6FB002010BDA2
:10752000082010BD2C2B002038B5124C207808B153
:10753000082038BD0125A570002000F08DFB112822
:1075400015D0002000F0A0FB0B480C49006800900B
:10755000684610DF0028ECD12570A07060701620FE
:1075600000F018FB0028E4D1012000F08DFB002082
:1075700038BD00002C2B002038890200393D020064
:107580000EB50749684600F03FF805E0D0E9001065
:107590008847684600F04FF802980028F6D10EBDE3
:1075A0005489020001480078704700002C2B00200D
:1075B0000548817819B1007818B1FFF795BF082008
:1075C0007047FFF7B1BF00002C2B00201FB56846A5
:1075D00048DF30B1052814D004B0BDE81040FCF7F6
:1075E000E7BB084901A800F00FF806E0D0E9002148
:1075F0000098904701A800F01EF803980028E6D0F4
:10760000F4E71FBDBC890200016009684160AFF367
:10761000008010B5D0E900215368994201D10021C2
:1076200004E0D1E90034A34202D01946816010BDC4
:1076300008314160F0E7816800290BD00268926848
:107640000A44826041684B689A4203D10831416024
:10765000FFF7DFBF704700000C4A10B502F1F003DE
:107660000EE0991AC91001EBD171491002EBC1016A
:107670000C68844201D90B4602E005D201F10802F0
:107680009A42EED3002010BD486810BD1888020051
:1076900000B5FFF7E1FF002800D1014800BD000060
:1076A000048802004058002800D00120704708B527
:1076B000002242504058009008BDD0F80403084012
:1076C00000D0012070474058002800D001207047AA
:1076D00008B5002242504058009008BD2DE9F04105
:1076E00005460078002826D10026144F4FF00108E7
:1076F00012E0A868805DFCF793FC04000BD0112C0D
:10770000F7D03988224608EB01400DA1FFF70AFCAB
:107710002046FCF74DFB761CA889B042E9D8A98920
:10772000A868084410F8010C0D2804D10A20FCF7C1
:1077300077FC1128FAD0BDE8F08100007C2B0020F6
:107740004661696C656420726563656976696E6718
:10775000204E5553206D6573736167652E20457209
:10776000726F7220307825782E20000010B550B14D
:1077700003280CD10220FDF70DFC002807D0BDE83E
:107780001040FCF715BBBDE8104000F05DBB10BD1C
:107790000078002807D104483B21408876DF002884
:1077A00001D0FCF705BB7047682A00202DE9FC4199
:1077B0008E88027900EBC605AC1D2A73C97B0129AE
:1077C00002D0022904D101E0008800E04088208036
:1077D000218860880127DFF8648081420CD9304617
:1077E0009EDF020025D0112A25D0B8F800001449E8
:1077F00007EB0040FFF796FBA079E179884216D9A4
:10780000002000900190287BADF80000287BADF8A7
:10781000020000226946304690DF030007D0B8F826
:107820000000324607EB00400649FFF782FBBDE847
:10783000FC816771E0E72771DEE70000342B002050
:10784000508A0200208B02007CB506468D88C888CD
:1078500006EBC504A41D172800D2172021888142F9
:1078600000D8084660800020207121882846ADDFBE
:10787000020007D00E480121008801EB00400D49AD
:10788000FFF750FB6079002810D1306900280DD037
:107890000948D0E90210CDE90010ADF80250608827
:1078A000ADF8040032696946304690477CBD00005F
:1078B000342B0020948A0200908702000449084477
:1078C00090F93000082801DB012070470020704744
:1078D000303100200449084490F93000082801D2D2
:1078E00001207047002070473031002010B50C4651
:1078F000C17949B11AB109A12046FEF723FF2046FC
:10790000BDE81040FEF72BBF007A0028F3D00448F2
:1079100004A102682046FEF715FFECE70D0A0000FF
:10792000082B00202573000070B50446C0790D4671
:1079300000281CD1207A50B1A179A088FFF7F6F970
:107940000B4951F820200BA12846FEF7FBFEA0882A
:107950000021FFF797FB03460549A079143951F838
:1079600020202846BDE8704003A1FEF7EBBE70BDA5
:10797000082B0020257300003C25733E2025733A18
:1079800020000000F0B41F48416F00292FD0016F84
:107990001D4DC1EBC10100EB810401262E70207941
:1079A00010B101281BD113E0D4E90501401A4FF4AE
:1079B0008052904200D31046B6EB900F01D282085D
:1079C00000E001222069E3680844194429DF03E04C
:1079D000D4E90301084428DF58B1112804D0204617
:1079E000F0BC0321FDF7B8BD002028706E70F0BC1C
:1079F0007047E8780028FAD1F0BC00210220FEF799
:107A0000EFBF000000330020CC2A002070B5012613
:107A100070044FF0E0210025C1F88001084C4010AF
:107A2000C4F84803C4F8080366602F20FEF710FB73
:107A3000A660044C2F20A560FEF70AFBA57070BD60
:107A400000100140A82A002070B50546C87D0C46EC
:107A500000284FF4847128460AD0FFF728FED5F895
:107A60001805627EE1688854607E401C607670BDB7
:107A7000FFF71DFED5F8180570BD30B58FB005466F
:107A80001C216846FBF7C3FC00249DF8000001940C
:107A900040F00C008DF800000394049405940694C3
:107AA00028788DF836000220ADF834000C949DF84B
:107AB0003000142120F00F00401C20F0F0001030A6
:107AC0008DF830009DF8310020F00F00401C20F0B0
:107AD000F00010308DF831009DF8320020F00600E3
:107AE000801C20F0180040F001008DF8320007A83B
:107AF000FBF78DFC0DA807900CA808900120ADF8AD
:107B00002400F420ADF82640ADF82800688805F17F
:107B10000C0307AA6946A2DF0FB030BD1FB50123D1
:107B20008DF800308DF808100192D0E900126846F7
:107B300090471FBD10B5044600684FF49271FFF7DF
:107B4000B6FD4FF484712068FFF7B1FD2068012174
:107B5000016010BD10B50446FCF762F868B10C4A2C
:107B6000936804F01F0001218140600943B152F87D
:107B700020308B4342F8203007E042F2010010BD74
:107B8000800000F1E020C0F88011002010BD00004E
:107B9000F432002010B50446FCF742F840B1002C46
:107BA00009DA04F00F0000F1E02090F8140D06E06F
:107BB00042F2010010BD04F1E02090F800044109F8
:107BC000082912D289B101290FD004290DD00C4AFD
:107BD000936804F01F0101208840610943B152F805
:107BE0002130034342F8213007E042F2020010BD89
:107BF000890001F1E021C1F80001002010BD000062
:107C0000F432002038B50021012558B101280ED0EA
:107C100003280BD107210020FEF79AFABDE838406F
:107C2000FEF780BA4FF0E020C0F8805138BD8DF8E3
:107C300000106846FCF712FA064C207808B9FEF7E7
:107C40004DFAE068401CE060A5709DF80000FCF76C
:107C500029FA38BD1C3100203EB504460949684662
:107C6000FFF7D2FC08E000BFD0E900212046904792
:107C700030B16846FFF7DFFC02980028F4D13EBD22
:107C800011203EBD3C8902003EB5044608496846C5
:107C9000FFF7BAFC07E000BFD0E90021204690477B
:107CA0006846FFF7C8FC02980028F5D13EBD0000E9
:107CB0004889020070B50028049D18D0002916D00C
:107CC000002A14D05FF0000430F814609E420FD1F7
:107CD00000200123A34008E001EB800426680DB1D9
:107CE0001E4300E09E43401C26609042F4D370BDCA
:107CF000641C202CE8D370BD70B5054600242146D5
:107D0000284600F00AF808B1204670BD641CA4B2F1
:107D1000202CF4D34FF6FF7070BD01228A4002423E
:107D200001D001207047002070472DE9F04192B04A
:107D300080464FF0000017460D00009012D000243E
:107D40006E46A1B23846FFF7E8FF40B1009935F81A
:107D5000140006EB410188800098401C0090641CD0
:107D6000202CEED3442269464046FBF737FB12B085
:107D7000BDE8F08108B5009313460122FFF79AFF92
:107D800008BD000002498969002900D008477047F2
:107D9000483000202DE9F04114000F460DD0002599
:107DA0000A26791922460020FBF7D6FC0544241A3E
:107DB00008B9761E01D0002CF3D1BDE8F081000097
:107DC0002DE9F0410746806A14468846C8B300256D
:107DD00031E000BFB96A05EB450001EB8006B088D1
:107DE000801CFE2802D90C20BDE8F0812288401CAE
:107DF00008F8020020881622401C80B2208008F873
:107E000000202088401C80B2208000EB08013088D0
:107E100000F085FB2188084480B22080B28842B1FE
:107E2000B16871B14044FBF7D9FA2088B1880844A1
:107E300020806D1CEDB297F82C00A842CAD8002013
:107E4000D2E7FFE70720CFE710B50020FDF7A2F843
:107E500008B1FBF7ADFFFCF7FBFF08B1FBF7A8FF8C
:107E600032DF002803D0BDE81040FBF7A1BF10BDF2
:107E7000002801D1FDF74CBA704700002DE9F84306
:107E8000DFF88C800446914698F81C04D8F8085016
:107E90000F461E46002838D169461846FDF7B4F94A
:107EA000002832D00098C44600EA050108EB8102A0
:107EB00052F80C1F21F00301491C401C1160E3061D
:107EC00002D541F0040101E021F0040164F3C50191
:107ED00066F3891167F39F21116000EA0501220C06
:107EE0000CEB8101401CCA60009000200BE000BF39
:107EF000009959F8203001EA05020CEB8202491C76
:107F0000D360401C0091B042F2D3BDE8F88300007A
:107F1000783400202DE9F84F1D4C00256846D4E93F
:107F200001A6FDF7F9FA002738B30023009A61682B
:107F30001CE0D1F800C00846944503D9ACEB02021E
:107F40000A6015E0A2EB0C0263440760D0F80CC095
:107F5000C1698146BCF1000F08D006EB030828F088
:107F60007F48C0E9018CC9F81C5005460029E0D1C2
:107F700028466160FDF79EFC03E02846FDF79AFC69
:107F800010B15046FDF7D8F9E770BDE8F88F000052
:107F9000A82A00200D4B10B5596831B102680C6851
:107FA000A24204D8A21A0A60C161586010BD0B46F3
:107FB00003E00B46C969121B21B10C689442F8D347
:107FC000A41A0C600260C161D86110BDA82A00200B
:107FD0002DE9F041144E77683D462C4603E084427B
:107FE00004D02546E469002CF9D11BE0D4B1A542A8
:107FF0000BD1F869706040B90C49012088600021FC
:10800000B160F0702F20FEF723F82168E069E86185
:1080100010B10268114401607068874202D00120EB
:10802000BDE8F0810020FBE7A82A002000100140F5
:108030007CB5064600240D468DF800406846FCF7E6
:108040000DF801A800F0FEFA70B10570094946600C
:108050009DF8040048709DF80000FCF723F81420F8
:10806000FBF71EFB20467CBD04249DF80000FCF7B6
:1080700019F8F7E7C83100202DE9F041194D6C6877
:10808000002C2CD0184800270068A968B846401A70
:1080900020F07F462068B0420CD82146361A0744AB
:1080A000E469087C20B181F81080886949698847B3
:1080B000002CEFD129786878814206D1401CC0B2EB
:1080C0006870022801D185F80180064869780C3073
:1080D00040F82170BDE8F0411420FBF7E1BABDE89B
:1080E000F0810000A82A00200415014070B50C465C
:1080F00005464FF48E71FFF7DAFAA18AA068415C59
:10810000A08A401CA082C5F81C1570BD30B58FB088
:108110000024054607949DF81C001C2120F00F0048
:10812000401C20F0F00010308DF81C009DF81D0060
:1081300020F00F00401C20F0F00010308DF81D00E2
:108140009DF81E0020F00600801C8DF81E00684679
:10815000FBF75DF99DF80000019440F010008DF8E8
:10816000000007A8CDE904400394069428788DF810
:108170003A000320ADF838000D949DF83400142126
:1081800020F00F00401C20F0F00010308DF834007B
:108190009DF8350020F00F00401C20F0F00010305A
:1081A0008DF835009DF8360020F00600801C20F088
:1081B000180040F001008DF8360008A8FBF727F9F9
:1081C0000EA808900DA809900120ADF82800F42011
:1081D000ADF82A40ADF82C0068882B1D08AA694626
:1081E000A2DF0FB030BD1FB500228DF800208DF842
:1081F0000810816801918275D0E9001268469047A5
:108200001FBD000038B5017841B1012901D0022914
:1082100028D14068BDE83840FBF7CABD134C124D69
:1082200020782844FBF788FE2078401CC0B229182B
:10823000207011F8011C0A2902D0A188884211D3AC
:1082400020780949ADF800006A4601F53D70FCF759
:1082500039FD082804D01128F2D008B1FBF7A8FD99
:108260000020207038BD0000AC2B0020682A0020C0
:108270007CB50178244D81B301290BD002292BD183
:108280008DF80010C068691C01900122C81DFEF71E
:10829000ABF82EE0406801781C48FBF7AFFD1B4CA3
:1082A000012618B18DF80060019006E0A068E16831
:1082B000814205D000208DF8000069686846884733
:1082C000A068E168081AA188884207D80E490122EF
:1082D000491CC81DFEF788F87CBD01E0AE70FBE7C5
:1082E0000A4809491030FBF76EFD30B103208DF8C4
:1082F0000000696868468847EEE70349012201F1FA
:108300000800FEF78DF9E7E7BC2A0020D4320020F0
:108310002DE9FF470C4605464FF40071FFF7CDF9F4
:1083200001274FF40178002618B34FF4927949469B
:108330002846FFF7B7F9E0B149462846FFF7B7F9F5
:10834000C5F80883A07E00B96F6002208DF8000098
:10835000D5F88004C5F880040390E07D8DF808000E
:10836000E0680190E6752676D4E9001268469047E9
:1083700027E004212846FFF7A0F910B34FF48471D9
:108380002846FFF78FF9E0B121462846FFF75CFB4E
:10839000E07D617E884214D1207E38B1617EE26842
:1083A000E0752069E0602676667607E0A07E00B979
:1083B0006F60C5F80883E675617EE2682046FFF7C6
:1083C000ADFB4FF48E7841462846FFF76BF988B134
:1083D000A08AA17D884204D221462846FFF786FE66
:1083E00008E041462846FFF762F9A17D11B1204619
:1083F000FFF7F9FE4FF4A27841462846FFF752F9FD
:10840000002812D041462846FFF751F9A07E00B15E
:108410002F60E07D002808D0E675617EE26804B038
:108420002046BDE8F047FFF779BBBDE8FF872DE99F
:10843000FF410C464FF4927705463946FFF743F962
:108440000026C0B139462846FFF742F902208DF8D0
:108450000000D5F88004C5F880040390D5F83C05E9
:108460008DF80800E0680190E6752676D4E90012E0
:108470006846904724E04FF4887739462846FFF74E
:1084800022F9E8B139462846FFF722F9D5F83C052C
:10849000C1B2E07D884213D1207E60B1E268D5F898
:1084A000000220F02000C5F80002207EE07520695F
:1084B000E060267601E0E675E2682046FFF72EFBD5
:1084C0004FF4A27739462846FFF7FDF868B13946E0
:1084D0002846FFF7FDF8E07D38B1E675D5F83C0594
:1084E000E268C1B22046FFF719FB4FF4907631469F
:1084F0002846FFF7E8F800280FD031462846FFF756
:10850000E7F8A07D002808D0D5F84C0504B0C1B22A
:108510002046BDE8F041FFF766BEBDE8FF81087068
:10852000000A4870022070472DE9F05F8346DDE9BC
:108530000A4A994690460D460846012703E000BFC7
:10854000B0FBF8F07F1C4045FAD2B94500D94F4640
:108550005FEACA7012D18CB15FEA8A7002D5B9F1B4
:10856000000F01D0202607E0302605E031465846AE
:10857000641EFCF775FE0CB1A742F7D35FF001064D
:10858000B9F1010F02D9A9F1010903E0B5FBF6F039
:10859000404502D306FB08F6F2E7DFF83C9000BF47
:1085A000B5FBF6F000FB165519F800105846FCF71D
:1085B00057FEB6FBF8F6002EF2D15FEACA7009D07A
:1085C000002C07D0A74205D220215846641EFCF794
:1085D00047FEF5E7BDE8F09FF4870200F8B50546D1
:1085E00080B2FDF769F8040013D0154E207A0027F9
:1085F000317B88420ED2A8B204F10A0175DF28B19E
:10860000112806D0BDE8F840FFF7BCBB207A401C1B
:108610002072F8BD2772307C38B1A8B23B2176DFDA
:1086200018B1082801D0FFF7ADFB71690029F0D01F
:108630008DF80070ADF8025068468847F8BD00001C
:10864000483000200A494A788B78521CD2B29342B3
:1086500000D100220B78934201D1002070470270B4
:10866000487800EB400001EBC000001D704700009F
:10867000C83100202DE9FC411646DDE90854CDE95A
:1086800000541F468046022200F00CF8002807D153
:10869000CDE900543B4610223146404600F002F836
:1086A000BDE8FC812DE9FC5F0026DDE90C4B994615
:1086B00092468E4680462788354630E0D8F804003A
:1086C000002200EB850069460068019001A864DF84
:1086D000002830D19DF8000050451FD10EB1002177
:1086E00000E00221228808441118594522D846B9D1
:1086F000521C90B2208009F800E02088401C2080A5
:108700000126218801A801EB0902694664DF0028DF
:1087100011D120889DF80010084420806D1CB8F805
:108720000000A842CADC56B12088C01B401E80B29F
:10873000FF2802D90C20BDE8FC9F09F807000020A3
:10874000F9E7000008000000060000000500000036
:10875000070000000000000000E0D7011112131410
:108760000D0E0F10A82F0020C82F0020F42F00207E
:108770000D000300714E02000E000300714E020056
:108780000F000300714E020010000300714E020042
:10879000770A000000000000770A000000000000D7
:1087A0007ADA000000000000010000000000000074
:1087B00000000000000000009ECADC240EE5A9E0D5
:1087C00093F3A3B50000406E00000050A8310020D4
:1087D00003000000FFFFFFFFFFFFFFFFFFFFFFFFA2
:1087E000FFFFFFFF00000000000000000000D601B6
:1087F00007010000303132333435363738394142E1
:1088000043444546556E6B6E6F776E206572726F8E
:108810007220636F6465000000000000588E020043
:1088200001000000188D020002000000988B020079
:10883000030000008C8D020004000000E08D0200A7
:1088400005000000D88C020006000000788C0200B1
:1088500007000000C88D020008000000EC8C020038
:1088600009000000388D02000A000000408E02005E
:108870000B000000808B02000C000000048D020041
:108880000D000000648E02000E000000B88D020092
:108890000F000000F48D020010000000288E02007E
:1088A00011000000788E020080000000B88C0200E9
:1088B000810000003C8C020082000000FC8B020062
:1088C00083000000DC8B020084000000188C020092
:1088D00085000000908C020086000000A08D020040
:1088E00090000000588C020091000000BC8B020038
:1088F00000820000088E020001820000548D0200F8
:1089000002820000708D0200416C02003F6C020088
:10891000396C0200EC2A0020E42A0020EC2A002016
:10892000B833002018000000C4910200CC9102006E
:10893000000000000000000001000007288902007C
:108940003889020008000000608902007089020076
:108950000800000070890200808902000800000001
:10896000F4910200049202000000000000000000E8
:10897000E4910200F49102000000000000000000F9
:108980008C9102009491020094910200A491020043
:10899000A4910200C4910200682A00208005000012
:1089A000808902009889020008000000CC91020032
:1089B000DC910200DC910200E4910200AC8902002B
:1089C000BC89020008000000004040404040404098
:1089D0004040414141414140404040404040404092
:1089E0004040404040404040400502020202020236
:1089F0000202020202020202022020202020202085
:108A00002020200202020202020290909090909098
:108A10001010101010101010101010101010101056
:108A200010101010020202020202888888888888CA
:108A300008080808080808080808080808080808B6
:108A4000080808080202020240000000C98902006A
:108A500073645F626C655F67617474635F6578639C
:108A600068616E67655F6D74755F7265717565735A
:108A70007428292072657475726E656420756E6540
:108A8000787065637465642076616C7565203078F4
:108A900025782E0073645F626C655F676174747320
:108AA0005F65786368616E67655F6D74755F726539
:108AB000706C7928292072657475726E65642075F2
:108AC0006E65787065637465642076616C75652089
:108AD000307825782E00000073645F626C655F67F4
